:020000040800F2
:10000000E013002045010008BD160008BF160008D7
:10001000C3160008C7160008CB1600080000000031
:10002000000000000000000000000000CF160008E3
:10003000D116000800000000D3160008D5160008ED
:100040005F0100085F0100085F0100085F01000810
:100050005F0100085F0100085F0100085F01000800
:100060005F0100085F0100085F0100089D1600089D
:100070005F0100085F010008D71600085F01000853
:100080005F0100085F0100085F0100085F010008D0
:100090005F0100085F0100085F0100085F010008C0
:1000A0005F0100085F0100085F0100085F010008B0
:1000B0005F0100085F0100085F0100085F010008A0
:1000C0005F0100085F0100085F0100085F01000890
:1000D0005F0100085F0100085F0100085F01000880
:1000E0005F0100085F0100085F0100085F01000870
:1000F0005F0100085F0100085F0100085F01000860
:100100005F0100085F0100085F0100085F0100084F
:100110005F0100085F0100085F0100085F0100083F
:100120005F0100085F0100085F0100085F0100082F
:10013000DFF80CD001F0A4FB004800475716000878
:10014000E01300200648804706480047FEE7FEE728
:10015000FEE7FEE7FEE7FEE7FEE7FEE7FEE7FEE777
:1001600045020008310100080CB500200190009004
:100170006B48006840F480306949086000BF6848F7
:10018000006800F4003000900198401C0190009835
:1001900018B90198B0F5A06FF1D16148006810F46A
:1001A000003F02D00120009001E000200090009864
:1001B000012842D15B48006840F0100059490860AE
:1001C0000846006820F0030008600846006840F018
:1001D000020008605248406851494860084640683B
:1001E00048600846406840F48060486008464068BF
:1001F00020F47C1048600846406840F4E8104860ED
:100200000846006840F08070086000BF44480068FD
:1002100010F0007FFAD04248406820F003004049C7
:1002200048600846406840F00200486000BF3C4813
:10023000406800F00C000828F9D10CBD10B5FFF79C
:1002400093FF10BD10B53648006840F001003449F6
:10025000086008464068344908403149486008460B
:100260000068324908402E4908600846006820F4BA
:10027000802008600846406820F4FE0048604FF483
:100280001F008860FFF7DAFF4FF000602849086020
:1002900010BD10B5002100200022214B5B6803F047
:1002A0000C0121B1042906D0082928D107E0214BEF
:1002B000214C236027E01F4B1F4C236023E0184B89
:1002C0005B6803F47010164B5B6803F48032022302
:1002D00003EB904022B9194B4343174C23600DE0C8
:1002E0000F4B5B6813F4003F04D0144B4343124C94
:1002F000236003E00F4B43430F4C236003E00D4B9F
:100300000D4C236000BF00BF054B5B68C3F30313B4
:100310000B4CE15C084B1B68CB40074C236010BDC5
:1003200000100240002002400000FFF8FFFFF6FE30
:1003300008ED00E000127A000000002000093D00F6
:100340000400002031490143314A1160704770B503
:10035000002100230F22C4780CB32D4C246804F430
:10036000E064C4F5E064210AC1F10403CA404478A2
:1003700004FA03F18478144021430901254C0678DE
:10038000A155047804F01F050124AC4005786D11D7
:100390004FF0E02606EB8505C5F8004109E004783A
:1003A00004F01F050124AC401B4D0678761145F87A
:1003B000264070BD194A0A400243154B1B1F1A60A4
:1003C000704739B1124A121D12680243104B1B1DAF
:1003D0001A6006E00E4A121D126882430C4B1B1D68
:1003E0001A607047042808D14FF0E021096941F0F4
:1003F00004014FF0E022116107E04FF0E0210969AC
:1004000021F004014FF0E022116170470000FA056D
:100410000CED00E000E400E080E100E080FFFF1F61
:1004200010B50446CA48844208D10121042000F0D6
:100430002BFD0021042000F027FD46E0C548844242
:1004400008D10121082000F01FFD0021082000F044
:100450001BFD3AE0C048844208D10121102000F081
:1004600013FD0021102000F00FFD2EE0BB48844258
:1004700008D10121202000F007FD0021202000F0FC
:1004800003FD22E0B648844208D10121402000F05B
:10049000FBFC0021402000F0F7FC16E0B14884424C
:1004A00008D10121802000F0EFFC0021802000F025
:1004B000EBFC0AE0AC48844207D10121801500F032
:1004C000E3FC0021A01500F0DFFC10BD10B50121F8
:1004D000084600F0D9FC0021012000F0D5FC10BD39
:1004E0002DE9F041024600250026002000230024CB
:1004F000002791F803C00CF00F0591F803C01CF021
:10050000100F03D091F802C04CEA050591F800C025
:10051000BCF1000F31D0146800202BE04FF0010C2B
:100520000CFA00F3B1F800C00CEA03069E4220D199
:1005300083004FF00F0C0CFA03F7BC4305FA03FCE1
:100540004CEA040491F803C0BCF1280F06D14FF027
:10055000010C0CFA00FCC2F814C00AE091F803C0C8
:10056000BCF1480F05D14FF0010C0CFA00FCC2F8A9
:1005700010C0401C0828D1D31460B1F800C0BCF1F1
:10058000FF0F34DD546800202EE000F1080C4FF01E
:10059000010808FA0CF3B1F800C00CEA03069E4209
:1005A00021D183004FF00F0C0CFA03F7BC4305FA7E
:1005B00003FC4CEA040491F803C0BCF1280F05D1F8
:1005C00000F1080C08FA0CF8C2F8148091F803C086
:1005D000BCF1480F07D100F1080C4FF0010808FAF0
:1005E0000CF8C2F81080401C0828CED35460BDE837
:1005F000F0814FF6FF710180022181700421C170EA
:1006000070470246002093680B4201D0012000E0B1
:10061000002070470146886880B27047024600207B
:10062000D3680B4201D0012000E000207047014652
:10063000C86880B2704701617047416170470AB174
:10064000016100E041617047C16070474FF4803242
:100650000A438261816182618269826970470246D0
:100660000020424B18684FF68073184040EA021091
:1006700008433E4B186070473D49C8617047F0B56C
:100680000A46002300240021002500F00046B6F1B0
:10069000004F02D1354EF16901E0344E7168C0F36C
:1006A000034583B200F44016B6F5401F08D121F08F
:1006B00070612E4E766826F070662C4F7E6012E0D8
:1006C00000F48016B6F5801F06D1032606FA05F45D
:1006D000A14341F0706106E0460D360103FA06F6CB
:1006E000B14341F0706122B1460D360103FA06F6BE
:1006F000314300F00046B6F1004F02D11B4EF161CC
:1007000001E01A4E7160F0BD30B500228B071C0F5E
:100710000F2303FA04F2154B08338C1053F82430DE
:100720009343124C08348D1044F8253023468C1026
:1007300053F824308C07240F00FA04F423430B4CA5
:1007400008348D1044F8253030BD0A4908607047E0
:1007500000080140000C014000100140001401405D
:1007600000180140001C0140002001400000014031
:1007700000002042DC00204210B50446FB488442C1
:1007800009D10121880300F07FFB00214FF4804054
:1007900000F07AFB32E0F648844209D10121480496
:1007A00000F07FFB00214FF4003000F07AFB25E0E1
:1007B000F048844209D10121880400F072FB002135
:1007C0004FF4802000F06DFB18E0EB48844209D123
:1007D0000121C80400F065FB00214FF4002000F067
:1007E00060FB0BE0E548844208D10121080500F0D8
:1007F00058FB00214FF4801000F053FB10BD2DE991
:10080000F04786B005460E460024A24600BFA1462A
:100810000027B08900B100BF2F462C8A4CF6FF702C
:100820000440F08804432C82AC894EF6F310044057
:10083000B08831890843718908430443AC81AC8A8C
:100840004FF6FF400440B0890443AC8201A800F099
:1008500094FAC648874202D1DDF810A001E0DDF825
:100860000CA0A88910F4004F08D00AEBCA0000EBD6
:100870000A1031684900B0FBF1F807E00AEBCA0042
:1008800000EB0A1031688900B0FBF1F86420B8FB76
:10089000F0F004012009642101FB1089A88910F4FB
:1008A000004F08D0322000EBC900B0FBF1F000F09F
:1008B0000700044308E0322000EB09106421B0FB7C
:1008C000F1F000F00F0004432C8106B0BDE8F08782
:1008D0004FF41651016000218180C18001810C21FB
:1008E000418100218181704710B502460020108AA5
:1008F0004FF2FF0318400B884C8823438C88234316
:10090000CC8823431843108210BD00210180418010
:100910008180C180704721B1828942F40052828176
:1009200004E082894DF6FF731A4082817047F0B56A
:1009300003460024002600250020A1F510676A3F29
:1009400000D100BF1846C1F3421401F01F06012771
:1009500007FA06F5012C01D10C3004E0022C01D17C
:10096000103000E014301AB107682F43076002E02E
:100970000768AF430760F0BD1AB1838A0B438382D7
:1009800002E0838A8B4383827047028A4FF6F073BA
:100990001A400282028A0A430282704782894FF219
:1009A000FF731A40828182890A438281704721B194
:1009B000828942F00202828104E082894FF6FD734F
:1009C0001A4082817047028A4FF6DF731A40028212
:1009D000028A0A430282704721B1028A42F48042AD
:1009E000028204E0028A4BF6FF731A4002827047CB
:1009F000C1F308028280704701468888C0F308006E
:100A00007047818941F0010181817047028BD2B228
:100A10000283028B42EA012202837047028B02F4B6
:100A20007F420283028B0A430283704721B1828A8C
:100A300042F02002828204E0828A4FF6DF731A407D
:100A40008282704721B1828A42F01002828204E0E1
:100A5000828A4FF6EF731A408282704721B1828AF0
:100A600042F00802828204E0828A4FF6F7731A404D
:100A70008282704721B1828942F40042828103E080
:100A80008289C2F30E028281704721B1828A42F4C8
:100A90000062828204E0828A4FF2FF731A408282EF
:100AA0007047828A4FF6FB731A408282828A0A4319
:100AB0008282704721B1828A42F00202828204E07F
:100AC000828A4FF6FD731A408282704702460020E8
:100AD000B1F5007F00D100BF13880B4201D0012087
:100AE00000E00020704701F40072B2F5007F00D1F1
:100AF00000BFCA430280704770B50246002400233D
:100B000000250020A1F510666A3E00D100BFC1F3A8
:100B1000421501F01F03012606FA03F3012D02D14D
:100B20009689334006E0022D02D1168A334001E057
:100B3000968A33400C12012606FA04F416883440D3
:100B400013B10CB1012000E0002070BD10B50022EF
:100B50000023A1F510646A3C00D100BF0A120124F1
:100B60009440A3B2DC43048010BD00000038014073
:100B70000044004000480040004C0040005000404D
:100B8000DD48006840F00100DB4908600846406825
:100B9000DA490840D849486008460068D849084002
:100BA000D54908600846006820F48020086008469F
:100BB000406820F4FE0048604FF41F0088607047D2
:100BC000CD49096821F48031CB4A1160114609688A
:100BD00021F480211160B0F5803F03D0B0F5802F63
:100BE0000ED106E0C449096841F48031C24A11605F
:100BF00007E0C149096841F4A021BF4A116000E043
:100C000000BF00BF704710B501460022002300203E
:100C10004A11012A02D1B84C236806E0022A02D107
:100C2000B54C236A01E0B44C636A01F01F02012451
:100C300094401C4201D0012000E0002010BD38B5D6
:100C4000002000900024002500BF3120FFF7DBFFCB
:100C500005460098401C00900098B0F5A06F01D0A8
:100C6000002DF2D03120FFF7CEFF08B1012400E0C3
:100C70000024204638BD014600209F4A106820F01D
:100C8000F80040EAC100106070479E490860704754
:100C900002460020984B586820F47C1042EA010379
:100CA0001843954B5860704796490866704701464F
:100CB0000020914A506820F00300084350607047BC
:100CC0008D48406800F00C007047014600208A4AB9
:100CD000506820F0F0000843506070470146002043
:100CE000854A506820F4E060084350607047014630
:100CF0000020814A506820F4605040EAC1005060F2
:100D0000704729B17C4A527A02437B4B5A7204E005
:100D1000794A527A8243784B5A7270477A4908600E
:100D2000704701460020744A506820F44040084350
:100D3000506070470021754A11706F4A82F8201088
:100D4000012802D0042808D103E001216F4A117064
:100D500004E005216D4A117000E000BF00BF70473C
:100D60006B49086070476449096A0143624A11622D
:100D70007047674944390860704730B50021002248
:100D8000002400235C4D6D6805F00C0121B104299D
:100D900005D0082923D105E05E4D056022E05D4DB8
:100DA00005601FE0544D6D6805F47012524D6D687A
:100DB00005F48034022505EB92421CB9564D55438B
:100DC00005600BE04C4D6D6815F4003F03D0524DAB
:100DD0005543056002E04F4D5543056002E04D4D1F
:100DE000056000BF00BF444D6D6805F0F0010909C2
:100DF0004A4D6B5C0568DD4045603F4D6D6805F40C
:100E0000E061090A454D6B5C4568DD4085603A4DFF
:100E10006D6805F46051C90A404D6B5C4568DD4062
:100E2000C560354D6D6805F44041890B3C4D6B5CE8
:100E3000C568B5FBF3F5056130BD29B12E4A52698D
:100E400002432D4B5A6104E02B4A526982432A4BDC
:100E50005A61704729B1284A92690243264B9A6128
:100E600004E0254A92698243234B9A61704729B175
:100E7000214AD2690243204BDA6104E01E4AD2695A
:100E800082431D4BDA61704729B11B4AD268024385
:100E9000194BDA6004E0184AD2688243164BDA60D4
:100EA000704729B1144A12690243134B1A6104E0D6
:100EB000114A12698243104B1A6170471449403934
:100EC000086070470F49C86470470B49C871704784
:100ED0000948406A40F080700749486270470146FF
:100EE0000020054A92680A4201D0012000E000205B
:100EF0007047014988727047001002400000FFF8F7
:100F0000FFFFF6FE00004242D8004242201002409D
:100F10008004424200127A0000093D0014000020C3
:100F20002400002001684FF6FE721140016000218C
:100F3000016041608160C1608C49884208D18B4961
:100F40000839496841F00F01884A083A51608AE03F
:100F500086491431884208D184490839496841F0EA
:100F6000F001824A083A51607DE080492831884288
:100F700008D17E490839496841F470617B4A083AD2
:100F8000516070E079493C31884208D1774908398D
:100F9000496841F47041754A083A516063E0734909
:100FA0005031884208D171490839496841F47021AB
:100FB0006E4A083A516056E06C496431884208D163
:100FC0006A490839496841F47001684A083A516031
:100FD00049E066497831884208D16449083949684E
:100FE00041F07061614A083A51603CE060498842D2
:100FF00006D1011F096841F00F01021F116032E0A4
:101000005B491431884208D15949091F096841F0E8
:10101000F001574A121F116025E0554928318842D6
:1010200008D15349091F096841F47061504A121FE1
:10103000116018E04E493C31884208D14C49091FE3
:10104000096841F470414A4A121F11600BE0484997
:101050005031884207D14649091F096841F470217F
:10106000434A121F1160704710B50022026847F60C
:10107000F0739A430C6A8B6823430C6923434C69D1
:1010800023438C692343CC6923434C6A23438C6AF2
:1010900023431A430260CB6843600B6883604B684C
:1010A000C36010BD0021016041608160C1600161C9
:1010B00041618161C161016241628162704721B118
:1010C000026842F00102026004E002684FF6FE731B
:1010D0001A40026070471AB103680B43036002E0D4
:1010E00003688B430360704741607047014648685E
:1010F00080B2704701460020002211F0805F03D0CB
:101100001B4B083B1A6802E0184B083B1A680A425E
:1011100001D0012000E00020704710F0805F03D074
:101120001349091F086002E01049083948607047F8
:1011300001460020002211F0805F03D00C4B083BD9
:101140001A6802E0094B083B1A680A4201D00120E4
:1011500000E00020704710F0805F03D00449091FB1
:10116000086002E001490839486070470800024001
:101170000804024010B50446FA48844208D101210F
:101180004015FFF781FE00216015FFF77DFE17E097
:10119000F548844208D101210015FFF775FE0021B2
:1011A0002015FFF771FE0BE0F048844208D10121C1
:1011B000C803FFF769FE00214FF40040FFF764FE0B
:1011C00010BD30B50246002000235068E84C204096
:1011D0000D790C6844EA0524204350609068E54C82
:1011E0002040D1E902542C434D7944EA4504204380
:1011F0009060D06A20F470000C7C641EE4B223433B
:1012000040EA0350D06230BD00210160017141719C
:101210008160C16001210174704721B1826842F090
:101220000102826003E0826822F00102826070475E
:1012300021B1826842F48072826003E0826822F405
:1012400080728260704710B50023CBB21AB1446837
:101250001C43446002E044689C43446010BD8168C4
:1012600041F0080181607047014600208A6812F051
:10127000080F01D0012000E000207047816841F094
:10128000040181607047014600208A6812F0040F53
:1012900001D0012000E00020704721B1826842F4B3
:1012A000A002826003E0826822F4A002826070479C
:1012B000014600208A6812F4800F01D0012000E06E
:1012C0000020704710B50A4600210023416821F430
:1012D0006041531E41EA4331416010BD21B1426873
:1012E00042F40062426003E0426822F4006242601D
:1012F0007047F0B504460D4600200021092D11DD90
:10130000E068A5F10A0606EB4607072606FA07F18C
:101310008843A5F10A0606EB460603FA06F10843E0
:10132000E0600CE0206905EB4507072606FA07F1A7
:10133000884305EB450603FA06F108432061072AB6
:101340000FDA606B561E06EB86071F2606FA07F1BA
:101350008843561E06EB860605FA06F108436063CD
:1013600022E00D2A0FDA206BD61F06EB86071F2618
:1013700006FA07F18843D61F06EB860605FA06F142
:101380000843206310E0E06AA2F10D0606EB860731
:101390001F2606FA07F18843A2F10D0606EB860622
:1013A00005FA06F10843E062F0BD21B1826842F41B
:1013B0008012826003E0826822F4801282607047AB
:1013C0000146C86C80B2704766484C300068704770
:1013D00021B1426842F48062426003E0426822F434
:1013E00080624260704721B1426842F4805242609C
:1013F00003E0426822F48052426070470A460021AE
:10140000816821F4E04111438160704721B1826815
:1014100042F40042826003E0826822F4004282606B
:10142000704721B1826842F40212826003E0826850
:1014300022F4021282607047014600208A6812F48A
:10144000001F01D0012000E000207047F0B50446E5
:101450001546002000220026092911DDE068A1F1CF
:101460000A0707EB470C072707FA0CF29043A1F194
:101470000A0707EB470703FA07F21043E0600CE0A6
:10148000206901EB410C072707FA0CF2904301EBAE
:10149000410703FA07F210432061A06BC0F3015625
:1014A000EF1C06F1010CA7EB0C0707EB870C1F27BD
:1014B00007FA0CF29043EF1C06F1010CA7EB0C07A6
:1014C00007EB870701FA07F21043A063F0BD10B5E0
:1014D0000A4600210023816B21F44011531E41EA8A
:1014E0000351816310BD08B5002300930090009B59
:1014F0000B440093009B1A6008BD08B5024600200B
:101500000090009201F12800009B18440090009880
:10151000006880B208BD0A4600214168164B194098
:101520001143416070474162826270470A46002160
:10153000416821F01F0111434160704740B10949E2
:101540000831096841F40001064A0832116007E0D9
:1015500004490831096821F40001024A0832116087
:10156000704700000024014000280140003C014079
:10157000FFFEF0FFFDF7F1FFFFFD3FFF02460020F9
:1015800013680B4201D0012000E000207047CA43DD
:101590000260704770B502460020002300240B1241
:1015A0005568CEB205EA060415681D4202D00CB19A
:1015B000012000E0002070BD00220A12D343036026
:1015C0007047000070B504460D46A1B22948FFF7E8
:1015D0000FFA00BF40212748FFF778FA0028F9D01A
:1015E000204670BD00B585B0012144F20400FFF72C
:1015F00031FC4FF40070ADF8100018208DF8130086
:1016000003208DF8120004A91B48FEF769FF4FF470
:101610008060ADF8100004208DF8130004A916486E
:10162000FEF75EFF4FF4E13000900020ADF80400BB
:10163000ADF80600ADF80800ADF80C000C20ADF8D0
:101640000A0069460B48FFF7DAF801210948FFF75D
:1016500062F905B000BD00F0EDF80AE00024FFF7E4
:10166000C1FF064850F8241005A000F049F9641C99
:1016700000BFF3E7003801400008014028000020C7
:101680002564090007E0002100E0491CB1F57A7FDC
:10169000FBDD401E00BF0028F5DA704710B50220C0
:1016A000FFF746FD48B110A000F02AF90120FFF72E
:1016B00052FD42F21070FFF7E5FF10BD704700BF0A
:1016C000FEE700BFFEE700BFFEE700BFFEE7704792
:1016D00070477047704710B54FF40050FFF71DFD7D
:1016E00006A000F00DF910BD206675636B20796FC0
:1016F0007520736869742063616F2100D2BBB4CE1A
:10170000646D61CFF2B4AEBFDACDA8D0C5CDEAB377
:10171000C900000008B501210846FFF78EFB012132
:101720004FF40470FFF796FB0120ADF80000002095
:101730008DF8030069464348FEF7D2FE08BD08B5A0
:101740004FF4C060FEF7FEFD0B208DF80000002076
:101750008DF8010008BD00B591B03B48FFF7E2FBF2
:101760003A4806903A480790002008904FF47A7063
:10177000099000200A900B904FF480700C9080002C
:101780000D9020200E9000020F900020109006A9CE
:101790002D48FFF769FC01212B48FFF790FC01223F
:1017A00002212948FFF797FC002001908DF80800DE
:1017B00001208DF809004FF4602003900020049070
:1017C00001208DF8140001A920484C38FFF7F9FCDE
:1017D0004FF44040FFF7A5FA052301220A211B48D8
:1017E0004C38FFF786FD012118484C38FFF720FDE3
:1017F000012116484C38FFF710FD14484C38FFF70C
:101800002EFD00BF11484C38FFF72EFD0028F9D1FE
:101810000E484C38FFF732FD00BF0C484C38FFF73C
:1018200032FD0028F9D1012108484C38FFF735FD79
:1018300011B000BD10B5FFF76DFFFFF780FFFFF798
:101840008AFF10BD00100140080002404C240140F6
:101850002800002030B50B4601460020202201243C
:1018600009E021FA02F59D4205D303FA02F5491B6E
:1018700004FA02F52844151EA2F10102F1DC30BD84
:10188000064C074D06E0E06840F0010394E80700CD
:1018900098471034AC42F6D3FEF74EFC941A000879
:1018A000B41A000870B501EB020410F8015B15F0E2
:1018B000070301D110F8013B2A1106D110F8012BC2
:1018C00003E010F8016B01F8016B5B1EF9D12B07E7
:1018D00005D40023521E0FD401F8013BFAE710F89B
:1018E000013B02F10202A1EB030303E013F8015BE9
:1018F00001F8015B521EF9D5A142D6D3002070BD7C
:101900000FB4054B10B503A9044A029800F018F86B
:1019100010BC5DF814FB0000C5150008DC0F0020AA
:1019200002E008C8121F08C1002AFAD170477047A8
:10193000002001E001C1121F002AFBD17047000006
:101940002DE9FF4F89B09B460446002597E02528E6
:1019500033D10027641C4E49B84601222378203B2E
:1019600002FA03F0084202D00743641CF6E720782D
:101970002E2819D114F8010F47F004072A280ED099
:101980006FF02F022078A0F1300109290CD808EB64
:10199000880102EB410100EB0108641CF2E70A98A0
:1019A000641C50F8048B0A90207800286BD06428BF
:1019B00008D0692806D0752820D05A460B99904740
:1019C0006D1C5BE00A994FF00A0901C90A910028D1
:1019D00004DAC0F100004FF02D0102E0390504D512
:1019E0002B218DF82010012103E0F90704D02021DC
:1019F000F7E78A4608AE0EE00021FAE70A994FF0B1
:101A00000A0901C90A91F7E74946FFF723FF01F1E7
:101A1000300106F8011D0028F6D1ADEB060000F1FB
:101A20002009780701D44FF00108C84502DDA8EB72
:101A3000090000E000208046002706E008A85A467A
:101A4000C05D0B9990476D1C7F1C5745F6DB04E089
:101A500030205A460B9990476D1CB8F10001A8F14F
:101A60000108F5DC05E016F8010B5A460B99904782
:101A70006D1CB9F10001A9F10109F4DC641C2078A6
:101A800000287FF464AF0DB02846BDE8F08F000059
:101A900009280100B41A000800000020E00F00002F
:101AA000A4180008F01A0008E00F0020000400004D
:101AB000301900081184A24A0468090102030406CF
:101AC0000708090C69103602040608FA02FFFB0138
:101AD000FF01FF01FF01FF01FF01FF01FF01FF0106
:101AE000FF01FF01FF01FF01FF01FF01C200000034
:0400000508000131BD
:00000001FF
